{
  "contractName": "WheelOfFortune",
  "abi": [
    {
      "constant": true,
      "inputs": [
        {
          "name": "",
          "type": "uint256"
        }
      ],
      "name": "bets",
      "outputs": [
        {
          "name": "player",
          "type": "address"
        },
        {
          "name": "bet_amount",
          "type": "uint256"
        },
        {
          "name": "result_place",
          "type": "uint8"
        },
        {
          "name": "win_amount",
          "type": "uint256"
        },
        {
          "name": "time",
          "type": "uint256"
        }
      ],
      "payable": false,
      "stateMutability": "view",
      "type": "function",
      "signature": "0x22af00fa"
    },
    {
      "constant": true,
      "inputs": [],
      "name": "gameMinBet",
      "outputs": [
        {
          "name": "",
          "type": "uint256"
        }
      ],
      "payable": false,
      "stateMutability": "view",
      "type": "function",
      "signature": "0x38766a6c"
    },
    {
      "constant": true,
      "inputs": [
        {
          "name": "",
          "type": "uint8"
        }
      ],
      "name": "placeBets",
      "outputs": [
        {
          "name": "winProbability",
          "type": "uint8"
        },
        {
          "name": "prizeRate",
          "type": "uint8"
        }
      ],
      "payable": false,
      "stateMutability": "view",
      "type": "function",
      "signature": "0x5ec24f20"
    },
    {
      "constant": false,
      "inputs": [],
      "name": "renounceOwnership",
      "outputs": [],
      "payable": false,
      "stateMutability": "nonpayable",
      "type": "function",
      "signature": "0x715018a6"
    },
    {
      "constant": true,
      "inputs": [],
      "name": "owner",
      "outputs": [
        {
          "name": "",
          "type": "address"
        }
      ],
      "payable": false,
      "stateMutability": "view",
      "type": "function",
      "signature": "0x8da5cb5b"
    },
    {
      "constant": true,
      "inputs": [],
      "name": "isOwner",
      "outputs": [
        {
          "name": "",
          "type": "bool"
        }
      ],
      "payable": false,
      "stateMutability": "view",
      "type": "function",
      "signature": "0x8f32d59b"
    },
    {
      "constant": true,
      "inputs": [],
      "name": "gameMaxBet",
      "outputs": [
        {
          "name": "",
          "type": "uint256"
        }
      ],
      "payable": false,
      "stateMutability": "view",
      "type": "function",
      "signature": "0xbbf71566"
    },
    {
      "constant": true,
      "inputs": [],
      "name": "currentBet",
      "outputs": [
        {
          "name": "",
          "type": "uint256"
        }
      ],
      "payable": false,
      "stateMutability": "view",
      "type": "function",
      "signature": "0xd504cb65"
    },
    {
      "constant": true,
      "inputs": [],
      "name": "totalPlace",
      "outputs": [
        {
          "name": "",
          "type": "uint256"
        }
      ],
      "payable": false,
      "stateMutability": "view",
      "type": "function",
      "signature": "0xd6b650df"
    },
    {
      "constant": false,
      "inputs": [
        {
          "name": "newOwner",
          "type": "address"
        }
      ],
      "name": "transferOwnership",
      "outputs": [],
      "payable": false,
      "stateMutability": "nonpayable",
      "type": "function",
      "signature": "0xf2fde38b"
    },
    {
      "inputs": [],
      "payable": false,
      "stateMutability": "nonpayable",
      "type": "constructor",
      "signature": "constructor"
    },
    {
      "payable": true,
      "stateMutability": "payable",
      "type": "fallback"
    },
    {
      "anonymous": false,
      "inputs": [
        {
          "indexed": true,
          "name": "player",
          "type": "address"
        },
        {
          "indexed": false,
          "name": "bet_amount",
          "type": "uint256"
        },
        {
          "indexed": false,
          "name": "result_place",
          "type": "uint8"
        },
        {
          "indexed": false,
          "name": "win_amount",
          "type": "uint256"
        },
        {
          "indexed": false,
          "name": "id",
          "type": "uint256"
        }
      ],
      "name": "UserBet",
      "type": "event",
      "signature": "0xb20326f78f0e6fd2a95ed25313bd767cca0f56be010356e20aafba99cf786338"
    },
    {
      "anonymous": false,
      "inputs": [
        {
          "indexed": true,
          "name": "previousOwner",
          "type": "address"
        },
        {
          "indexed": true,
          "name": "newOwner",
          "type": "address"
        }
      ],
      "name": "OwnershipTransferred",
      "type": "event",
      "signature": "0x8be0079c531659141344cd1fd0a4f28419497f9722a3daafe3b4186f6b6457e0"
    },
    {
      "constant": false,
      "inputs": [
        {
          "name": "win",
          "type": "uint8[]"
        },
        {
          "name": "prize",
          "type": "uint8[]"
        }
      ],
      "name": "setPlaceBets",
      "outputs": [
        {
          "name": "",
          "type": "uint256"
        }
      ],
      "payable": false,
      "stateMutability": "nonpayable",
      "type": "function",
      "signature": "0xa478ef90"
    },
    {
      "constant": true,
      "inputs": [],
      "name": "getMaxPrizeRate",
      "outputs": [
        {
          "name": "",
          "type": "uint8"
        }
      ],
      "payable": false,
      "stateMutability": "view",
      "type": "function",
      "signature": "0x3bea3da2"
    },
    {
      "constant": false,
      "inputs": [
        {
          "name": "amount",
          "type": "uint256"
        }
      ],
      "name": "userBet",
      "outputs": [
        {
          "name": "",
          "type": "uint256"
        },
        {
          "name": "",
          "type": "uint8"
        },
        {
          "name": "",
          "type": "uint256"
        }
      ],
      "payable": true,
      "stateMutability": "payable",
      "type": "function",
      "signature": "0xb14ae094"
    },
    {
      "constant": true,
      "inputs": [],
      "name": "getRandomFactor",
      "outputs": [
        {
          "name": "",
          "type": "uint256"
        }
      ],
      "payable": false,
      "stateMutability": "view",
      "type": "function",
      "signature": "0x28a5190c"
    },
    {
      "constant": false,
      "inputs": [
        {
          "name": "num",
          "type": "uint256"
        }
      ],
      "name": "setRandomFactor",
      "outputs": [],
      "payable": false,
      "stateMutability": "nonpayable",
      "type": "function",
      "signature": "0xbaf342e2"
    },
    {
      "constant": true,
      "inputs": [],
      "name": "getTotalUserBets",
      "outputs": [
        {
          "name": "",
          "type": "uint256"
        }
      ],
      "payable": false,
      "stateMutability": "view",
      "type": "function",
      "signature": "0x9c969909"
    },
    {
      "constant": true,
      "inputs": [],
      "name": "getTotalUserWin",
      "outputs": [
        {
          "name": "",
          "type": "uint256"
        }
      ],
      "payable": false,
      "stateMutability": "view",
      "type": "function",
      "signature": "0x831bc058"
    },
    {
      "constant": false,
      "inputs": [
        {
          "name": "num",
          "type": "uint256"
        }
      ],
      "name": "setGameMaxBet",
      "outputs": [],
      "payable": false,
      "stateMutability": "nonpayable",
      "type": "function",
      "signature": "0xeaf5a7df"
    },
    {
      "constant": false,
      "inputs": [
        {
          "name": "num",
          "type": "uint256"
        }
      ],
      "name": "setGameMinBet",
      "outputs": [],
      "payable": false,
      "stateMutability": "nonpayable",
      "type": "function",
      "signature": "0x59b63f6c"
    },
    {
      "constant": false,
      "inputs": [
        {
          "name": "amount",
          "type": "uint256"
        }
      ],
      "name": "withdraw",
      "outputs": [],
      "payable": false,
      "stateMutability": "nonpayable",
      "type": "function",
      "signature": "0x2e1a7d4d"
    }
  ],
  "bytecode": "0x60806040523480156200001157600080fd5b506200001c620003d4565b62000026620003d4565b6000336000806101000a81548173ffffffffffffffffffffffffffffffffffffffff021916908373ffffffffffffffffffffffffffffffffffffffff1602179055506000809054906101000a900473ffffffffffffffffffffffffffffffffffffffff1673ffffffffffffffffffffffffffffffffffffffff16600073ffffffffffffffffffffffffffffffffffffffff167f8be0079c531659141344cd1fd0a4f28419497f9722a3daafe3b4186f6b6457e060405160405180910390a362000108600a42620003ad6401000000000262001345179091906401000000009004565b600381905550686c6b935b8bbd400000600781905550670de0b6b3a7640000600881905550601460098190555061028060405190810160405280600060ff168152602001600860ff168152602001600060ff168152602001600260ff168152602001600060ff168152602001600660ff168152602001600060ff168152602001600560ff168152602001600060ff168152602001600060ff168152602001600460ff168152602001600060ff168152602001600360ff168152602001600060ff168152602001600260ff168152602001600060ff168152602001600260ff168152602001600060ff168152602001600a60ff168152602001600060ff16815250925061028060405190810160405280603060ff168152602001600f60ff168152602001603860ff168152602001603c60ff168152602001603c60ff168152602001601460ff168152602001604060ff168152602001601960ff168152602001603a60ff168152602001604060ff168152602001601e60ff168152602001603860ff168152602001603260ff168152602001603860ff168152602001603c60ff168152602001603c60ff168152602001605060ff168152602001604460ff168152602001600a60ff168152602001603c60ff168152509150600090505b60148160ff161015620003a4576040805190810160405280838360ff166014811015156200030e57fe5b602002015160ff168152602001848360ff166014811015156200032d57fe5b602002015160ff16815250600160008360ff1660ff16815260200190815260200160002060008201518160000160006101000a81548160ff021916908360ff16021790555060208201518160000160016101000a81548160ff021916908360ff1602179055509050508080600101915050620002e4565b505050620003f8565b6000808214151515620003bf57600080fd5b8183811515620003cb57fe5b06905092915050565b61028060405190810160405280601490602082028038833980820191505090505090565b61149080620004086000396000f300608060405260043610610112576000357c0100000000000000000000000000000000000000000000000000000000900463ffffffff16806322af00fa1461011457806328a5190c146101a35780632e1a7d4d146101ce57806338766a6c146101fb5780633bea3da21461022657806359b63f6c146102575780635ec24f2014610284578063715018a6146102db578063831bc058146102f25780638da5cb5b1461031d5780638f32d59b146103745780639c969909146103a3578063a478ef90146103ce578063b14ae0941461048b578063baf342e2146104d3578063bbf7156614610500578063d504cb651461052b578063d6b650df14610556578063eaf5a7df14610581578063f2fde38b146105ae575b005b34801561012057600080fd5b5061013f600480360381019080803590602001909291905050506105f1565b604051808673ffffffffffffffffffffffffffffffffffffffff1673ffffffffffffffffffffffffffffffffffffffff1681526020018581526020018460ff1660ff1681526020018381526020018281526020019550505050505060405180910390f35b3480156101af57600080fd5b506101b8610654565b6040518082815260200191505060405180910390f35b3480156101da57600080fd5b506101f960048036038101908080359060200190929190505050610671565b005b34801561020757600080fd5b506102106106fb565b6040518082815260200191505060405180910390f35b34801561023257600080fd5b5061023b610701565b604051808260ff1660ff16815260200191505060405180910390f35b34801561026357600080fd5b5061028260048036038101908080359060200190929190505050610794565b005b34801561029057600080fd5b506102b2600480360381019080803560ff1690602001909291905050506107b1565b604051808360ff1660ff1681526020018260ff1660ff1681526020019250505060405180910390f35b3480156102e757600080fd5b506102f06107ef565b005b3480156102fe57600080fd5b506103076108c1565b6040518082815260200191505060405180910390f35b34801561032957600080fd5b506103326108de565b604051808273ffffffffffffffffffffffffffffffffffffffff1673ffffffffffffffffffffffffffffffffffffffff16815260200191505060405180910390f35b34801561038057600080fd5b50610389610907565b604051808215151515815260200191505060405180910390f35b3480156103af57600080fd5b506103b861095e565b6040518082815260200191505060405180910390f35b3480156103da57600080fd5b50610475600480360381019080803590602001908201803590602001908080602002602001604051908101604052809392919081815260200183836020028082843782019150505050505091929192908035906020019082018035906020019080806020026020016040519081016040528093929190818152602001838360200280828437820191505050505050919291929050505061097b565b6040518082815260200191505060405180910390f35b6104a960048036038101908080359060200190929190505050610c6a565b604051808481526020018360ff1660ff168152602001828152602001935050505060405180910390f35b3480156104df57600080fd5b506104fe60048036038101908080359060200190929190505050611252565b005b34801561050c57600080fd5b5061051561126f565b6040518082815260200191505060405180910390f35b34801561053757600080fd5b50610540611275565b6040518082815260200191505060405180910390f35b34801561056257600080fd5b5061056b61127b565b6040518082815260200191505060405180910390f35b34801561058d57600080fd5b506105ac60048036038101908080359060200190929190505050611281565b005b3480156105ba57600080fd5b506105ef600480360381019080803573ffffffffffffffffffffffffffffffffffffffff16906020019092919050505061129e565b005b60026020528060005260406000206000915090508060000160009054906101000a900473ffffffffffffffffffffffffffffffffffffffff16908060010154908060020160009054906101000a900460ff16908060030154908060040154905085565b600061065e610907565b151561066957600080fd5b600354905090565b610679610907565b151561068457600080fd5b3073ffffffffffffffffffffffffffffffffffffffff163181111515156106aa57600080fd5b6106b26108de565b73ffffffffffffffffffffffffffffffffffffffff166108fc829081150290604051600060405180830381858888f193505050501580156106f7573d6000803e3d6000fd5b5050565b60085481565b6000806000809150600090505b6009548160ff16101561078c578160ff16600160008360ff1660ff16815260200190815260200160002060000160019054906101000a900460ff1660ff16111561077f57600160008260ff1660ff16815260200190815260200160002060000160019054906101000a900460ff1691505b808060010191505061070e565b819250505090565b61079c610907565b15156107a757600080fd5b8060088190555050565b60016020528060005260406000206000915090508060000160009054906101000a900460ff16908060000160019054906101000a900460ff16905082565b6107f7610907565b151561080257600080fd5b600073ffffffffffffffffffffffffffffffffffffffff166000809054906101000a900473ffffffffffffffffffffffffffffffffffffffff1673ffffffffffffffffffffffffffffffffffffffff167f8be0079c531659141344cd1fd0a4f28419497f9722a3daafe3b4186f6b6457e060405160405180910390a360008060006101000a81548173ffffffffffffffffffffffffffffffffffffffff021916908373ffffffffffffffffffffffffffffffffffffffff160217905550565b60006108cb610907565b15156108d657600080fd5b600554905090565b60008060009054906101000a900473ffffffffffffffffffffffffffffffffffffffff16905090565b60008060009054906101000a900473ffffffffffffffffffffffffffffffffffffffff1673ffffffffffffffffffffffffffffffffffffffff163373ffffffffffffffffffffffffffffffffffffffff1614905090565b6000610968610907565b151561097357600080fd5b600454905090565b6000806000610988610907565b151561099357600080fd5b845160098190555083518551141515610a3a576040517f08c379a00000000000000000000000000000000000000000000000000000000081526004018080602001828103825260218152602001807f4572726f722077696e2e6c656e67746820213d207072697a652e6c656e67746881526020017f2e0000000000000000000000000000000000000000000000000000000000000081525060400191505060405180910390fd5b60009150600090505b6009548160ff161015610be457610a80858260ff16815181101515610a6457fe5b9060200190602002015160ff16836112bd90919063ffffffff16565b9150610a9860036009546112de90919063ffffffff16565b848260ff16815181101515610aa957fe5b9060200190602002015160ff161115610b2a576040517f08c379a000000000000000000000000000000000000000000000000000000000815260040180806020018281038252601b8152602001807f4572726f72207072697a65203e20746f74616c506c61636578332e000000000081525060200191505060405180910390fd5b6040805190810160405280868360ff16815181101515610b4657fe5b9060200190602002015160ff168152602001858360ff16815181101515610b6957fe5b9060200190602002015160ff16815250600160008360ff1660ff16815260200190815260200160002060008201518160000160006101000a81548160ff021916908360ff16021790555060208201518160000160016101000a81548160ff021916908360ff1602179055509050508080600101915050610a43565b6103e882141515610c5d576040517f08c379a00000000000000000000000000000000000000000000000000000000081526004018080602001828103825260178152602001807f4572726f7220746f74616c57696e20213d20313030302e00000000000000000081525060200191505060405180910390fd5b6009549250505092915050565b60008060008060008060008060008060008b341015610cf1576040517f08c379a000000000000000000000000000000000000000000000000000000000815260040180806020018281038252601c8152602001807f596f75206e6f7420656e6f756768205645542070726f76696465642e0000000081525060200191505060405180910390fd5b6008548c1015610d8f576040517f08c379a00000000000000000000000000000000000000000000000000000000081526004018080602001828103825260398152602001807f596f7520706c616365207468652062657420616d6f756e7420736d616c6c657281526020017f207468616e20746865206d696e696d756d20616d6f756e742e0000000000000081525060400191505060405180910390fd5b6007548c1115610e2d576040517f08c379a00000000000000000000000000000000000000000000000000000000081526004018080602001828103825260378152602001807f596f7520736574207468652062657420616d6f756e742067726561746572207481526020017f68616e20746865206d6178696d756d20616d6f756e742e00000000000000000081525060400191505060405180910390fd5b3073ffffffffffffffffffffffffffffffffffffffff1631610e62610e50610701565b60ff168e6112de90919063ffffffff16565b1115610efc576040517f08c379a00000000000000000000000000000000000000000000000000000000081526004018080602001828103825260268152602001807f5468697320636f6e7472616374206e6f7420656e6f756768205645542070726f81526020017f76696465642e000000000000000000000000000000000000000000000000000081525060400191505060405180910390fd5b610f118c6004546112bd90919063ffffffff16565b600481905550610f1f61131c565b9750610f5c610f4b6001610f3d600a8c61134590919063ffffffff16565b6112bd90919063ffffffff16565b6003546112bd90919063ffffffff16565b600381905550610f776103e88961134590919063ffffffff16565b9650600095506000945060009350600092505b6009548360ff16101561100457610fd6600160008560ff1660ff16815260200190815260200160002060000160009054906101000a900460ff1660ff16856112bd90919063ffffffff16565b9350848710158015610fe757508387105b15610ff457829550611004565b8394508280600101935050610f8a565b600091506000600160008860ff1660ff16815260200190815260200160002060000160019054906101000a900460ff1660ff1611156110e15761107c600160008860ff1660ff16815260200190815260200160002060000160019054906101000a900460ff1660ff168d6112de90919063ffffffff16565b9150611093826005546112bd90919063ffffffff16565b6005819055503373ffffffffffffffffffffffffffffffffffffffff166108fc839081150290604051600060405180830381858888f193505050501580156110df573d6000803e3d6000fd5b505b60a0604051908101604052803373ffffffffffffffffffffffffffffffffffffffff1681526020018d81526020018760ff1681526020018381526020014281525060026000600654815260200190815260200160002060008201518160000160006101000a81548173ffffffffffffffffffffffffffffffffffffffff021916908373ffffffffffffffffffffffffffffffffffffffff1602179055506020820151816001015560408201518160020160006101000a81548160ff021916908360ff160217905550606082015181600301556080820151816004015590505060065490503373ffffffffffffffffffffffffffffffffffffffff167fb20326f78f0e6fd2a95ed25313bd767cca0f56be010356e20aafba99cf7863388d888585604051808581526020018460ff1660ff16815260200183815260200182815260200194505050505060405180910390a260066000815480929190600101919050555050505050505050509193909250565b61125a610907565b151561126557600080fd5b8060038190555050565b60075481565b60065481565b60095481565b611289610907565b151561129457600080fd5b8060078190555050565b6112a6610907565b15156112b157600080fd5b6112ba8161136a565b50565b60008082840190508381101515156112d457600080fd5b8091505092915050565b60008060008414156112f35760009150611315565b828402905082848281151561130457fe5b0414151561131157600080fd5b8091505b5092915050565b600060035461133560644261134590919063ffffffff16565b6001430303406001900401905090565b600080821415151561135657600080fd5b818381151561136157fe5b06905092915050565b600073ffffffffffffffffffffffffffffffffffffffff168173ffffffffffffffffffffffffffffffffffffffff16141515156113a657600080fd5b8073ffffffffffffffffffffffffffffffffffffffff166000809054906101000a900473ffffffffffffffffffffffffffffffffffffffff1673ffffffffffffffffffffffffffffffffffffffff167f8be0079c531659141344cd1fd0a4f28419497f9722a3daafe3b4186f6b6457e060405160405180910390a3806000806101000a81548173ffffffffffffffffffffffffffffffffffffffff021916908373ffffffffffffffffffffffffffffffffffffffff160217905550505600a165627a7a7230582066cac3f948836a82acef56acb9a16f8f14e5c0953cf51638c9c9c46f3b1059a50029",
  "source": "pragma solidity ^0.4.23;\r\nimport \"./SafeMath.sol\";\r\nimport \"./Ownable.sol\";\r\n\r\n//\r\ncontract WheelOfFortune is Ownable {\r\n\tusing SafeMath for uint;\r\n\r\n\tstruct PlaceBet{\r\n\t\tuint8 winProbability;//probability of winning 1% -> 100%\r\n\t\tuint8 prizeRate;//ex: x0, x2, x5....\r\n\t}\r\n\r\n\tstruct Bet{\r\n\t\taddress player;\r\n\t\tuint bet_amount;\r\n\t\tuint8 result_place;\r\n\t\tuint win_amount; \r\n\t\tuint time;\r\n\t}\r\n\r\n\tmapping(uint8 => PlaceBet) public placeBets;\r\n\tmapping(uint => Bet) public bets;\r\n\r\n\tuint private randomFactor;\r\n\tuint private totalUserBets;\r\n\tuint private totalUserWin;\r\n\r\n\tuint public currentBet;\r\n\tuint public gameMaxBet;\r\n\tuint public gameMinBet;\r\n    uint public totalPlace;\r\n\r\n\tevent UserBet(address indexed player, uint bet_amount, uint8 result_place, uint win_amount, uint id);\r\n\r\n\t//contract constructor\r\n\tconstructor() public {\r\n\t\trandomFactor = now.mod(10);\r\n\t\tgameMaxBet = 2000*(10**18);//2000 VET\r\n\t\tgameMinBet = 1*(10**18);//1 VET\r\n\t    totalPlace = 20;\r\n\t\tuint8[20] memory prize = [0,8,0,2,0,6,0,5,0,0,4,0,3,0,2,0,2,0,10,0];//2(x2), 5(x5), ...\r\n\t\tuint8[20] memory win = [48,15,56,60,60,20,64,25,58,64,30,56,50,56,60,60,80,68,10,60];//sum = 1000 <=> (100%)\r\n\t\tfor(uint8 i = 0; i < win.length; i++){\r\n\t        placeBets[i] = PlaceBet({winProbability: win[i], prizeRate: prize[i]});\r\n\t    }\r\n\t}\r\n\r\n\tfunction setPlaceBets(uint8[] win, uint8[] prize) public onlyOwner returns(uint){\r\n\t    totalPlace = win.length;\r\n\t    if (win.length != prize.length) revert(\"Error win.length != prize.length.\");\r\n\t    uint totalWin = 0;\r\n\t    for(uint8 i = 0; i < totalPlace; i++){\r\n\t        totalWin = totalWin.add(win[i]);\r\n\t        if (prize[i] > totalPlace.mul(3)) revert(\"Error prize > totalPlacex3.\");\r\n\t        placeBets[i] = PlaceBet({winProbability: win[i], prizeRate: prize[i]});\r\n\t    }\r\n\t    if (totalWin != 1000) revert(\"Error totalWin != 1000.\");\r\n\t    return totalPlace;\r\n\t}\r\n\r\n\tfunction getMaxPrizeRate() public view returns(uint8) {\r\n\t\tuint8 maxRate = 0;\r\n\t    for(uint8 i = 0; i < totalPlace; i++){\r\n\t        if(placeBets[i].prizeRate > maxRate)maxRate = placeBets[i].prizeRate;\r\n\t    }\r\n        return maxRate;\r\n\t}\r\n\r\n\t//\r\n\tfunction userBet(uint amount) public payable returns(uint, uint8, uint){\r\n\t\tif (msg.value < amount) revert(\"You not enough VET provided.\");\r\n\t\tif (amount < gameMinBet) revert(\"You place the bet amount smaller than the minimum amount.\");\r\n\t\tif (amount > gameMaxBet) revert(\"You set the bet amount greater than the maximum amount.\");\r\n\t\tif (amount.mul(getMaxPrizeRate()) > address(this).balance) revert(\"This contract not enough VET provided.\");\r\n        totalUserBets = totalUserBets.add(amount);\r\n\t\tuint random_number = random_uint();\r\n\t\trandomFactor = randomFactor.add(random_number.mod(10).add(1));\r\n\t\tuint result_number = random_number.mod(1000);\r\n\t\t//\r\n\t\tuint8 result_place = 0;\r\n\t\tuint smallNum = 0;\r\n\t    uint bigNum = 0;\r\n\t    for(uint8 i = 0; i < totalPlace; i++){\r\n\t        bigNum = bigNum.add(placeBets[i].winProbability);\r\n\t\t\tif(result_number >= smallNum && result_number < bigNum){\r\n\t\t\t\tresult_place = i;\r\n\t\t\t\tbreak;\r\n\t\t\t}\r\n\t\t\tsmallNum = bigNum;\r\n\t    }\r\n\t\t//\r\n\t\tuint win_amount = 0;\r\n\t\tif(placeBets[result_place].prizeRate > 0){\r\n\t\t\twin_amount = amount.mul(placeBets[result_place].prizeRate);\r\n\t\t\ttotalUserWin = totalUserWin.add(win_amount);\r\n\t\t\tmsg.sender.transfer(win_amount);\r\n\t\t}\r\n\t\tbets[currentBet] = Bet({\r\n\t\t\tplayer: msg.sender,\r\n\t\t\tbet_amount: amount,\r\n\t\t\tresult_place: result_place,\r\n\t\t\twin_amount: win_amount,\r\n\t\t\ttime: now\r\n\t\t});\r\n        uint id = currentBet;\r\n\t\temit UserBet(msg.sender, amount, result_place, win_amount, id);\r\n\t\tcurrentBet++;\r\n\t}\r\n\r\n\tfunction getRandomFactor() public onlyOwner view returns(uint) {\r\n        \treturn randomFactor;\r\n\t}\r\n\r\n\tfunction setRandomFactor(uint num) public onlyOwner {\r\n        \trandomFactor = num;\r\n\t}\r\n\r\n\tfunction getTotalUserBets() public onlyOwner view returns(uint) {\r\n        \treturn totalUserBets;\r\n\t}\r\n\r\n\tfunction getTotalUserWin() public onlyOwner view returns(uint) {\r\n        \treturn totalUserWin;\r\n\t}\r\n\r\n\r\n\tfunction setGameMaxBet(uint num) public onlyOwner {\r\n        \tgameMaxBet = num;\r\n\t}\r\n\r\n\tfunction setGameMinBet(uint num) public onlyOwner {\r\n        \tgameMinBet = num;\r\n\t}\r\n\t//random\r\n\tfunction random_uint() private view returns (uint256) {\r\n\t\treturn uint256(blockhash(block.number-1-block.timestamp.mod(100))) + randomFactor;\r\n\t}\r\n\r\n\t//withdraw\r\n\tfunction withdraw(uint amount) public onlyOwner {\r\n\t\trequire(amount <= address(this).balance);\r\n\t\towner().transfer(amount);\r\n\t}\r\n\r\n    function() public payable{}\r\n}\r\n",
  "sourcePath": "C:/wamp64/www/Working/Blockchain/Vechain/WheelOfFortune/contracts/WheelOfFortune.sol",
  "compiler": {
    "name": "solc",
    "version": "0.4.25+commit.59dbf8f1.Emscripten.clang"
  },
  "schemaVersion": "3.0.2",
  "updatedAt": "2019-04-04T21:11:43.586Z",
  "devdoc": {
    "methods": {
      "isOwner()": {
        "return": "true if `msg.sender` is the owner of the contract."
      },
      "owner()": {
        "return": "the address of the owner."
      },
      "renounceOwnership()": {
        "details": "Allows the current owner to relinquish control of the contract."
      },
      "transferOwnership(address)": {
        "details": "Allows the current owner to transfer control of the contract to a newOwner.",
        "params": {
          "newOwner": "The address to transfer ownership to."
        }
      }
    }
  },
  "userdoc": {
    "methods": {
      "renounceOwnership()": {
        "notice": "Renouncing to ownership will leave the contract without an owner. It will not be possible to call the functions with the `onlyOwner` modifier anymore."
      }
    }
  }
}